S015000077696E6454756E6E656C5553422E73726563FD
S11300000BC100002AC1000028C1000026C1000065
S113001024C1000022C1000020C100001EC1000054
S11300201CC100001AC1000018C1000016C1000064
S113003014C1000012C100000C94A9090C94E60933
S11300400C94230A0C94600A0C949D0A0C94DA0A0A
S11300500C94170B0C94540B0C94910B0C94CE0B26
S1130060FCC00000FAC00000F8C00000F6C00000A8
S1130070F4C00000F2C00000F0C00000EEC00000B8
S1130080ECC00000EAC00000E8C00000E6C00000C8
S1130090E4C00000E2C00000E0C00000A7C200000D
S11300A017C3000087C30000F7C30000D6C00000D8
S11300B0D4C00000D2C00000D0C000000C946D0E6B
S11300C00C94AA0E0C94E70E0C94240F0C94610F5C
S11300D00C949E0F0C94DB0F0C9418100C94551078
S11300E00C949210BAC00000B8C00000B6C0000062
S11300F0B4C00000B2C00000B0C00000AEC0000038
S1130100ACC00000AAC00000A8C00000A6C0000047
S1130110A4C00000A2C00000A0C000009FC0000056
S11301200FC100007FC10000EFC1000096C00000B5
S113013094C000000C940B0C0C94480C0C94850C8B
S11301400C94C20C0C94FF0C0C943C0D0C94790D83
S11301500C94B60D0C94F30D0C94300E7EC000007C
S11301607CC000007AC0000078C0000076C00000A7
S113017074C0000072C0000070C000006EC00000B7
S11301806CC000006AC0000068C0000066C00000C7
S113019064C0000062C0000060C000005EC00000D7
S11301A05CC000005AC0000058C0000056C00000E7
S11301B00C94CF100C940C110C9449110C948611CE
S11301C00C94C3110C94001248C0000046C00000F7
S11301D044C0000042C0000040C000003EC0000017
S11301E03CC000003AC0000038C0000036C0000027
S11301F034C000000C94B8320C945E3325074607D3
S113020067078807A907CA07EB07E237E537E83726
S1130210EB37EE37F137F43711241FBECFEFCDBFE4
S1130220DFE5DEBF00E00CBF12E2A0E0B0E2ECEBE1
S1130230F2E800E00BBF02C007900D92AE33B107A5
S1130240D9F729E2AEE3B2E201C01D92A436B207A7
S1130250E1F70E94D21C0C945C41D2CE1F920F9203
S113026000903F000F92112400903B000F922F93B7
S11302703F934F935F936F937F938F939F93AF932A
S1130280BF93EF93FF93CF93DF9300D01F92CDB72B
S1130290DEB72091FC283091FD2880E092E089832C
S11302A09A8381E08B831C828B81882F90E08370FA
S11302B09927892B39F48C818E5F8C838B81869569
S11302C086958B838B81882F90E081709927892B69
S11302D019F48C818F5F8C8389819A81AC01405E93
S11302E05F4F8C81882F90E0880F991F880F991F8A
S11302F0880F991F840F951FFC0184819581AC019F
S113030061E080E092E0F901199500002496CDBFE8
S1130310DEBFDF91CF91FF91EF91BF91AF919F919C
S11303208F917F916F915F914F913F912F910F909A
S113033000923B000F9000923F000F901F90189581
S11303401F920F9200903F000F92112400903B00E7
S11303500F922F933F934F935F936F937F938F935A
S11303609F93AF93BF93EF93FF93CF93DF9300D00B
S11303701F92CDB7DEB72091FC283091FD2880E094
S113038092E089839A8382E08B831C828B81882FFD
S113039090E083709927892B39F48C818E5F8C834C
S11303A08B81869586958B838B81882F90E08170D5
S11303B09927892B19F48C818F5F8C8389819A8189
S11303C0AC01405E5F4F8C81882F90E0880F991FAD
S11303D0880F991F880F991F840F951FFC01848132
S11303E09581AC0162E080E092E0F901199500008A
S11303F02496CDBFDEBFDF91CF91FF91EF91BF91E6
S1130400AF919F918F917F916F915F914F913F91A8
S11304102F910F9000923B000F9000923F000F909D
S11304201F9018951F920F9200903F000F92112475
S113043000903B000F922F933F934F935F936F93E2
S11304407F938F939F93AF93BF93EF93FF93CF9338
S1130450DF9300D01F92CDB7DEB72091FC283091F6
S1130460FD2880E092E089839A8384E08B831C8258
S11304708B81882F90E083709927892B39F48C81A4
S11304808E5F8C838B81869586958B838B81882F59
S113049090E081709927892B19F48C818F5F8C836C
S11304A089819A81AC01405E5F4F8C81882F90E0F6
S11304B0880F991F880F991F880F991F840F951F04
S11304C0FC0184819581AC0164E080E092E0F90153
S11304D0199500002496CDBFDEBFDF91CF91FF9127
S11304E0EF91BF91AF919F918F917F916F915F91A8
S11304F04F913F912F910F9000923B000F900092EB
S11305003F000F901F9018951F920F9200903F008C
S11305100F92112400903B000F922F933F934F931F
S11305205F936F937F938F939F93AF93BF93EF9357
S1130530FF93CF93DF9300D01F92CDB7DEB7209106
S1130540FC283091FD2880E092E089839A8388E03A
S11305508B831C828B81882F90E083709927892B51
S113056039F48C818E5F8C838B81869586958B8301
S11305708B81882F90E081709927892B19F48C81C5
S11305808F5F8C8389819A81AC01405E5F4F8C813F
S1130590882F90E0880F991F880F991F880F991F43
S11305A0840F951FFC0184819581AC0168E080E093
S11305B092E0F901199500002496CDBFDEBFDF91CA
S11305C0CF91FF91EF91BF91AF919F918F917F91C7
S11305D06F915F914F913F912F910F9000923B004B
S11305E00F9000923F000F901F9018951F920F924A
S11305F000903F000F92112400903B000F922F9324
S11306003F934F935F936F937F938F939F93AF9396
S1130610BF93EF93FF93CF93DF9300D01F92CDB797
S1130620DEB72091FA283091FB2880E492E0898398
S11306309A8381E08B831C828B81882F90E0837066
S11306409927892B39F48C818E5F8C838B818695D5
S113065086958B838B81882F90E081709927892BD5
S113066019F48C818F5F8C8389819A81AC01405EFF
S11306705F4F8C81882F90E0880F991F880F991FF6
S1130680880F991F840F951FFC0184819581AC010B
S113069061E080E492E0F901199500002496CDBF51
S11306A0DEBFDF91CF91FF91EF91BF91AF919F9109
S11306B08F917F916F915F914F913F912F910F9007
S11306C000923B000F9000923F000F901F901895EE
S11306D01F920F9200903F000F92112400903B0054
S11306E00F922F933F934F935F936F937F938F93C7
S11306F09F93AF93BF93EF93FF93CF93DF9300D078
S11307001F92CDB7DEB72091FA283091FB2880E400
S113071092E089839A8382E08B831C828B81882F69
S113072090E083709927892B39F48C818E5F8C83B8
S11307308B81869586958B838B81882F90E0817041
S11307409927892B19F48C818F5F8C8389819A81F5
S1130750AC01405E5F4F8C81882F90E0880F991F19
S1130760880F991F880F991F840F951FFC0184819E
S11307709581AC0162E080E492E0F90119950000F2
S11307802496CDBFDEBFDF91CF91FF91EF91BF9152
S1130790AF919F918F917F916F915F914F913F9115
S11307A02F910F9000923B000F9000923F000F900A
S11307B01F9018951F920F9200903F000F921124E2
S11307C000903B000F922F933F934F935F936F934F
S11307D07F938F939F93AF93BF93EF93FF93CF93A5
S11307E0DF9300D01F92CDB7DEB72091FA28309165
S11307F0FB2880E492E089839A8384E08B831C82C3
S11308008B81882F90E083709927892B39F48C8110
S11308108E5F8C838B81869586958B838B81882FC5
S113082090E081709927892B19F48C818F5F8C83D8
S113083089819A81AC01405E5F4F8C81882F90E062
S1130840880F991F880F991F880F991F840F951F70
S1130850FC0184819581AC0164E080E492E0F901BB
S1130860199500002496CDBFDEBFDF91CF91FF9193
S1130870EF91BF91AF919F918F917F916F915F9114
S11308804F913F912F910F9000923B000F90009257
S11308903F000F901F9018951F920F9200903F00F9
S11308A00F92112400903B000F922F933F934F938C
S11308B05F936F937F938F939F93AF93BF93EF93C4
S11308C0FF93CF93DF9300D01F92CDB7DEB7209173
S11308D0FA283091FB2880E492E089839A8388E0A7
S11308E08B831C828B81882F90E083709927892BBE
S11308F039F48C818E5F8C838B81869586958B836E
S11309008B81882F90E081709927892B19F48C8131
S11309108F5F8C8389819A81AC01405E5F4F8C81AB
S1130920882F90E0880F991F880F991F880F991FAF
S1130930840F951FFC0184819581AC0168E080E4FB
S113094092E0F901199500002496CDBFDEBFDF9136
S1130950CF91FF91EF91BF91AF919F918F917F9133
S11309606F915F914F913F912F910F9000923B00B7
S11309700F9000923F000F901F901895CF93DF9334
S1130980CDB7DEB780E09CE6ACEDB2E0BC01CD01B2
S1130990DF91CF910895CF93DF931F92CDB7DEB748
S11309A0198281E08983EADFDC01CB012981222FCE
S11309B030E004C0B695A795979587952A95D2F708
S11309C0BC01CD010F90DF91CF910895CF93DF93B8
S11309D0CDB7DEB7E0DFDC01CB01BC01CD01DF9197
S11309E0CF910895CF93DF93CDB7DEB7EFDFDC016E
S11309F0CB01BC01CD01DF91CF910895CF93DF935B
S1130A00CDB7DEB7EFDFDC01CB01BC01CD01DF9157
S1130A10CF910895CF93DF9300D0CDB7DEB789830C
S1130A209A836B8389819A81FC018081982F907FBE
S1130A308B81892B282F89819A81FC0120830000D6
S1130A402396CDBFDEBFDF91CF910895CF93DF937F
S1130A5000D01F92CDB7DEB789839A836B837C83E2
S1130A6089819A812B813C81FC0126A337A3000054
S1130A702496CDBFDEBFDF91CF910895CF93DF934E
S1130A8000D0CDB7DEB789839A836B8389819A813D
S1130A9080749927892B61F489819A81FC01918161
S1130AA08B81292F282B89819A81FC01218313C0F2
S1130AB089819A8180749927892B69F089819A8127
S1130AC0FC018181982F8B818073892B282F898148
S1130AD09A81FC01218300002396CDBFDEBFDF9104
S1130AE0CF910895CF93DF93CDB7DEB72597CDBFD0
S1130AF0DEBF89839A836B834C835D8389819A816A
S1130B0080749927892B99F58B81882F90E0823006
S1130B109105A1F0833091051CF4019739F046C08A
S1130B208330910599F00497C9F040C089819A8176
S1130B302C813D81FC0120AF31AF38C089819A817D
S1130B402C813D81FC0122AF33AF30C089819A8171
S1130B502C813D81FC0124AF35AF28C089819A8165
S1130B602C813D81FC0126AF37AF00001FC0898175
S1130B709A8180749927892BC9F08B81882F90E002
S1130B808130910519F0029749F010C089819A814A
S1130B902C813D81FC0120AF31AF08C089819A814D
S1130BA02C813D81FC0122AF33AF00002596CDBFDF
S1130BB0DEBFDF91CF910895CF93DF9300D0CDB7FF
S1130BC0DEB789839A836B8389819A81FC01818151
S1130BD0982F987F8B81892B282F89819A81FC01FA
S1130BE0218300002396CDBFDEBFDF91CF9108950E
S1130BF0CF93DF9300D0CDB7DEB789839A836B831D
S1130C0089819A81FC01858196819C0140E050E0B4
S1130C108B81882F90E0A0E0B0E0BC01CD010E9460
S1130C20A73CDC01CB0124E630E040E050E0BC010D
S1130C30CD010E94CA3CDA01C9019C0189819A81D3
S1130C40FC01628189819A81FC0180819181A901E1
S1130C5049DF00002396CDBFDEBFDF91CF91089519
S1130C60EF92FF920F931F93CF93DF93CDB7DEB72D
S1130C702C97CDBFDEBF89879A876B877C87BEDEC2
S1130C80DC01CB018B839C83AD83BE838B859C85E8
S1130C909C0140E050E08B819C81AD81BE81BC0110
S1130CA0CD010E94CA3CDA01C9012FEF3FEF40E0B9
S1130CB050E0BC01CD010E94CA3CDA01C9018F8316
S1130CC098878F819885892B51F481E090E08983FE
S1130CD09A8389859A8521E0FC01248352C08F81FF
S1130CE09885029750F482E090E089839A838985FD
S1130CF09A8522E0FC01248344C08F81988504975F
S1130D0050F484E090E089839A8389859A8523E06E
S1130D10FC01248336C08F819885089750F488E0BD
S1130D2090E089839A8389859A8524E0FC01248351
S1130D3028C08F8198858034910550F480E490E038
S1130D4089839A8389859A8525E0FC01248319C0C7
S1130D508F8198858F3F910509F050F480E091E0F0
S1130D6089839A8389859A8526E0FC01248309C0B6
S1130D7080E094E089839A8389859A8527E0FC0141
S1130D80248389819A819C0140E050E08B819C817D
S1130D90AD81BE81BC01CD010E94CA3CDA01C9010A
S1130DA07C018D018B859C859C0140E050E0C8014D
S1130DB0B7010E94CA3CDA01C9019C0189859A8560
S1130DC0FC012583368389859A85FC01858196817A
S1130DD08436910548F489859A85FC0114828985B5
S1130DE09A85FC011582168200002C96CDBFDEBFC9
S1130DF0DF91CF911F910F91FF90EF900895CF93C2
S1130E00DF93CDB7DEB72797CDBFDEBF8A839B8341
S1130E106C834D832E833F8319828C81882F90E0CD
S1130E20092E000CAA0BBB0B40E050E026E030E09A
S1130E30841B950B2817390708F4EEC0FC0188279A
S1130E40E250FF4F8F4F0C94EC3C8A819B8120E051
S1130E5038E0FC012083318380E496E020E436E02E
S1130E60F9012081622F2D81222F30E0A901415008
S1130E70510921E030E002C0220F331F4A95E2F706
S1130E80262BFC01208384E08983C7C08A819B814F
S1130E9020E438E0FC012083318380E496E020E400
S1130EA036E0F9012081622F2D81222F30E0A90143
S1130EB04D5F5F4F21E030E002C0220F331F4A959F
S1130EC0E2F7262BFC01208382E08983A6C08A8175
S1130ED09B8120E039E0FC012083318380E696E0A9
S1130EE020E636E0F9012081622F2D81222F30E0A7
S1130EF0A9014150510921E030E002C0220F331F03
S1130F004A95E2F7262BFC01208384E0898385C07F
S1130F108A819B8120E439E0FC012083318380E6CF
S1130F2096E020E636E0F9012081622F2D81222F00
S1130F3030E0A9014D5F5F4F21E030E002C0220F95
S1130F40331F4A95E2F7262BFC01208382E0898334
S1130F5064C08A819B8120E03AE0FC0120833183D4
S1130F6080E896E020E836E0F9012081622F2D81A7
S1130F70222F30E0A9014150510921E030E002C0A4
S1130F80220F331F4A95E2F7262BFC01208384E0CD
S1130F90898343C08A819B8120E43AE0FC01208359
S1130FA0318380E896E020E836E0F9012081622F61
S1130FB02D81222F30E0A9014D5F5F4F21E030E009
S1130FC002C0220F331F4A95E2F7262BFC0120832F
S1130FD082E0898322C08A819B8120E03BE0FC017E
S1130FE02083318380EA96E020EA36E0F90120810B
S1130FF0622F2D81222F30E0A9014150510921E0B7
S113100030E002C0220F331F4A95E2F7262BFC0181
S1131010208384E0898301C000008A819B812D8123
S1131020FC0122838D81882F90E08230910591F01C
S1131030833091051CF4019739F01EC0833091056B
S113104079F0049799F018C08A819B8120E1FC0112
S1131050238312C08A819B8120E2FC0123830CC07C
S11310608A819B8120E4FC01238306C08A819B81C1
S113107020E8FC01238300008A819B81FC0180819C
S113108091810E943D128A819B81FC018081918122
S113109063E092DD8A819B81FC01158216828A813C
S11310A09B81FC0114828A819B81FC018081918156
S11310B060E0B0DC2E813F818A819B81B901D0DD63
S11310C000002796CDBFDEBFDF91CF910895CF9367
S11310D0DF9300D0CDB7DEB789839A836B83898190
S11310E09A816B8185DD89819A81FC012581368114
S11310F089819A81FC0180819181B901A7DC898170
S11311009A81FC01238189819A81FC0180819181EA
S1131110622FB4DC89819A81FC01248189819A81BE
S1131120FC0180819181622F75DC00002396CDBF84
S1131130DEBFDF91CF910895CF93DF93CDB7DEB7B4
S1131140F89481E0DF91CF910895CF93DF931F92BC
S11311501F92CDB7DEB789839A83789400000F90ED
S11311600F90DF91CF910895CF93DF93CDB7DEB782
S11311702F97CDBFDEBF6C877D878E879F878F8536
S11311808F938E858F938D858F938C858F9383EF2B
S113119090E2892F8F9383EF90E28F93CE01019693
S11311A09F938F930E948A3E8DB79EB70896CDBFBA
S11311B0DEBFCE0101962ED000002F96CDBFDEBF3C
S11311C0DF91CF910895CF93DF931F921F92CDB7F4
S11311D0DEB71A82B1DF898311C04FE150E06DE1BF
S11311E079E28FEF98E20E946B3E4FE150E060E0BD
S11311F070E08DE199E20E94743E1982898188230E
S113120061F7CE010296A1DF00000F900F90DF91ED
S1131210CF910895CF93DF931F921F92CDB7DEB77E
S113122089839A830EC089819A819C012F5F3F4FE5
S113123029833A83FC018081082E000C990B0E94BB
S11312407C2889819A81FC018081882361F70000D0
S11312500F900F90DF91CF9108950F931F93CF9329
S1131260DF931F92CDB7DEB789830E94902688232F
S113127059F18091FE28082F10E00E944227282F60
S1131280C801835E964DFC0120838091FE28882F3F
S113129090E0835E964DFC0180818D3051F0809109
S11312A0FE28882F90E0835E964DFC0180818A3071
S11312B031F481E080933B291092FE2805C080918F
S11312C0FE288F5F8093FE2800000F90DF91CF915E
S11312D01F910F910895CF93DF931F92CDB7DEB77F
S11312E08FE390E0FC0180818983F89489810F90D9
S11312F0DF91CF910895CF93DF931F92CDB7DEB7DF
S113130089838FE390E02981FC01208300000F9002
S1131310DF91CF910895CF93DF931F921F92CDB7A2
S1131320DEB78A83D8DF89838A81882F90E09C0185
S1131330245B364DF90120812F5F845B964DFC01BF
S113134020838981D8DF00000F900F90DF91CF9127
S113135008951F920F9200903F000F921124009065
S11313603B000F922F933F934F935F936F937F9321
S11313708F939F93AF93BF93EF93FF93CF93DF9399
S1131380CDB7DEB780913E2290913F22892B31F078
S113139080913E2290913F22FC0119950000DF913B
S11313A0CF91FF91EF91BF91AF919F918F917F91D9
S11313B06F915F914F913F912F910F9000923B005D
S11313C00F9000923F000F901F9018951F920F925C
S11313D000903F000F92112400903B000F922F9336
S11313E03F934F935F936F937F938F939F93AF93A9
S11313F0BF93EF93FF93CF93DF93CDB7DEB7809185
S1131400402290914122892B31F080914022909189
S11314104122FC0119950000DF91CF91FF91EF91DA
S1131420BF91AF919F918F917F916F915F914F91F8
S11314303F912F910F9000923B000F9000923F003C
S11314400F901F9018951F920F9200903F000F92DB
S1131450112400903B000F922F933F934F935F937F
S11314606F937F938F939F93AF93BF93EF93FF9368
S1131470CF93DF93CDB7DEB7809142229091432280
S1131480892B31F08091422290914322FC011995DD
S11314900000DF91CF91FF91EF91BF91AF919F91A8
S11314A08F917F916F915F914F913F912F910F9009
S11314B000923B000F9000923F000F901F901895F0
S11314C01F920F9200903F000F92112400903B0056
S11314D00F922F933F934F935F936F937F938F93C9
S11314E09F93AF93BF93EF93FF93CF93DF93CDB7C6
S11314F0DEB78091442290914522892B31F080916E
S1131500442290914522FC0119950000DF91CF916E
S1131510FF91EF91BF91AF919F918F917F916F91C7
S11315205F914F913F912F910F9000923B000F904C
S113153000923F000F901F9018951F920F920090F9
S11315403F000F92112400903B000F922F933F9382
S11315504F935F936F937F938F939F93AF93BF93B7
S1131560EF93FF93CF93DF93CDB7DEB780914622FD
S113157090914722892B31F0809146229091472205
S1131580FC0119950000DF91CF91FF91EF91BF917C
S1131590AF919F918F917F916F915F914F913F9107
S11315A02F910F9000923B000F9000923F000F90FC
S11315B01F9018951F920F9200903F000F921124D4
S11315C000903B000F922F933F934F935F936F9341
S11315D07F938F939F93AF93BF93EF93FF93CF9397
S11315E0DF93CDB7DEB78091482290914922892BB1
S11315F031F08091482290914922FC011995000014
S1131600DF91CF91FF91EF91BF91AF919F918F9116
S11316107F916F915F914F913F912F910F90009225
S11316203B000F9000923F000F901F9018951F925F
S11316300F9200903F000F92112400903B000F92F4
S11316402F933F934F935F936F937F938F939F93C6
S1131650AF93BF93EF93FF93CF93DF93CDB7DEB7F1
S113166080914A2290914B22892B31F080914A2219
S113167090914B22FC0119950000DF91CF91FF91CD
S1131680EF91BF91AF919F918F917F916F915F91F6
S11316904F913F912F910F9000923B000F90009239
S11316A03F000F901F9018951F920F9200903F00DB
S11316B00F92112400903B000F922F933F934F936E
S11316C05F936F937F938F939F93AF93BF93EF93A6
S11316D0FF93CF93DF93CDB7DEB780914C229091E7
S11316E04D22892B31F080914C2290914D22FC01A6
S11316F019950000DF91CF91FF91EF91BF91AF91C8
S11317009F918F917F916F915F914F913F912F9115
S11317100F9000923B000F9000923F000F901F909B
S113172018951F920F9200903F000F921124009081
S11317303B000F922F933F934F935F936F937F934D
S11317408F939F93AF93BF93EF93FF93CF93DF93C5
S1131750CDB7DEB780914E2290914F22892B31F084
S113176080914E2290914F22FC0119950000DF9147
S1131770CF91FF91EF91BF91AF919F918F917F9105
S11317806F915F914F913F912F910F9000923B0089
S11317900F9000923F000F901F9018951F920F9288
S11317A000903F000F92112400903B000F922F9362
S11317B03F934F935F936F937F938F939F93AF93D5
S11317C0BF93EF93FF93CF93DF93CDB7DEB78091B1
S11317D0502290915122892B31F080915022909186
S11317E05122FC0119950000DF91CF91FF91EF91F7
S11317F0BF91AF919F918F917F916F915F914F9125
S11318003F912F910F9000923B000F9000923F0068
S11318100F901F9018951F920F9200903F000F9207
S1131820112400903B000F922F933F934F935F93AB
S11318306F937F938F939F93AF93BF93EF93FF9394
S1131840CF93DF93CDB7DEB780915222909153228C
S1131850892B31F08091522290915322FC011995E9
S11318600000DF91CF91FF91EF91BF91AF919F91D4
S11318708F917F916F915F914F913F912F910F9035
S113188000923B000F9000923F000F901F9018951C
S11318901F920F9200903F000F92112400903B0082
S11318A00F922F933F934F935F936F937F938F93F5
S11318B09F93AF93BF93EF93FF93CF93DF93CDB7F2
S11318C0DEB78091542290915522892B31F080917A
S11318D0542290915522FC0119950000DF91CF917B
S11318E0FF91EF91BF91AF919F918F917F916F91F4
S11318F05F914F913F912F910F9000923B000F9079
S113190000923F000F901F9018951F920F92009025
S11319103F000F92112400903B000F922F933F93AE
S11319204F935F936F937F938F939F93AF93BF93E3
S1131930EF93FF93CF93DF93CDB7DEB78091562219
S113194090915722892B31F0809156229091572201
S1131950FC0119950000DF91CF91FF91EF91BF91A8
S1131960AF919F918F917F916F915F914F913F9133
S11319702F910F9000923B000F9000923F000F9028
S11319801F9018951F920F9200903F000F92112400
S113199000903B000F922F933F934F935F936F936D
S11319A07F938F939F93AF93BF93EF93FF93CF93C3
S11319B0DF93CDB7DEB78091582290915922892BBD
S11319C031F08091582290915922FC011995000020
S11319D0DF91CF91FF91EF91BF91AF919F918F9143
S11319E07F916F915F914F913F912F910F90009252
S11319F03B000F9000923F000F901F9018951F928C
S1131A000F9200903F000F92112400903B000F9220
S1131A102F933F934F935F936F937F938F939F93F2
S1131A20AF93BF93EF93FF93CF93DF93CDB7DEB71D
S1131A3080915A2290915B22892B31F080915A2215
S1131A4090915B22FC0119950000DF91CF91FF91E9
S1131A50EF91BF91AF919F918F917F916F915F9122
S1131A604F913F912F910F9000923B000F90009265
S1131A703F000F901F9018951F920F9200903F0007
S1131A800F92112400903B000F922F933F934F939A
S1131A905F936F937F938F939F93AF93BF93EF93D2
S1131AA0FF93CF93DF93CDB7DEB780915C22909103
S1131AB05D22892B31F080915C2290915D22FC01A2
S1131AC019950000DF91CF91FF91EF91BF91AF91F4
S1131AD09F918F917F916F915F914F913F912F9142
S1131AE00F9000923B000F9000923F000F901F90C8
S1131AF018951F920F9200903F000F9211240090AE
S1131B003B000F922F933F934F935F936F937F9379
S1131B108F939F93AF93BF93EF93FF93CF93DF93F1
S1131B20CDB7DEB780915E2290915F22892B31F090
S1131B3080915E2290915F22FC0119950000DF9153
S1131B40CF91FF91EF91BF91AF919F918F917F9131
S1131B506F915F914F913F912F910F9000923B00B5
S1131B600F9000923F000F901F9018951F920F92B4
S1131B7000903F000F92112400903B000F922F938E
S1131B803F934F935F936F937F938F939F93AF9301
S1131B90BF93EF93FF93CF93DF93CDB7DEB78091DD
S1131BA0602290916122892B31F080916022909182
S1131BB06122FC0119950000DF91CF91FF91EF9113
S1131BC0BF91AF919F918F917F916F915F914F9151
S1131BD03F912F910F9000923B000F9000923F0095
S1131BE00F901F9018951F920F9200903F000F9234
S1131BF0112400903B000F922F933F934F935F93D8
S1131C006F937F938F939F93AF93BF93EF93FF93C0
S1131C10CF93DF93CDB7DEB7809162229091632298
S1131C20892B31F08091622290916322FC011995F5
S1131C300000DF91CF91FF91EF91BF91AF919F9100
S1131C408F917F916F915F914F913F912F910F9061
S1131C5000923B000F9000923F000F901F90189548
S1131C601F920F9200903F000F92112400903B00AE
S1131C700F922F933F934F935F936F937F938F9321
S1131C809F93AF93BF93EF93FF93CF93DF93CDB71E
S1131C90DEB78091642290916522892B31F0809186
S1131CA0642290916522FC0119950000DF91CF9187
S1131CB0FF91EF91BF91AF919F918F917F916F9120
S1131CC05F914F913F912F910F9000923B000F90A5
S1131CD000923F000F901F9018951F920F92009052
S1131CE03F000F92112400903B000F922F933F93DB
S1131CF04F935F936F937F938F939F93AF93BF9310
S1131D00EF93FF93CF93DF93CDB7DEB78091662235
S1131D1090916722892B31F08091662290916722FD
S1131D20FC0119950000DF91CF91FF91EF91BF91D4
S1131D30AF919F918F917F916F915F914F913F915F
S1131D402F910F9000923B000F9000923F000F9054
S1131D501F9018951F920F9200903F000F9211242C
S1131D6000903B000F922F933F934F935F936F9399
S1131D707F938F939F93AF93BF93EF93FF93CF93EF
S1131D80DF93CDB7DEB78091682290916922892BC9
S1131D9031F08091682290916922FC01199500002C
S1131DA0DF91CF91FF91EF91BF91AF919F918F916F
S1131DB07F916F915F914F913F912F910F9000927E
S1131DC03B000F9000923F000F901F9018951F92B8
S1131DD00F9200903F000F92112400903B000F924D
S1131DE02F933F934F935F936F937F938F939F931F
S1131DF0AF93BF93EF93FF93CF93DF93CDB7DEB74A
S1131E0080916A2290916B22892B31F080916A2211
S1131E1090916B22FC0119950000DF91CF91FF9105
S1131E20EF91BF91AF919F918F917F916F915F914E
S1131E304F913F912F910F9000923B000F90009291
S1131E403F000F901F9018951F920F9200903F0033
S1131E500F92112400903B000F922F933F934F93C6
S1131E605F936F937F938F939F93AF93BF93EF93FE
S1131E70FF93CF93DF93CDB7DEB780916C2290911F
S1131E806D22892B31F080916C2290916D22FC019E
S1131E9019950000DF91CF91FF91EF91BF91AF9120
S1131EA09F918F917F916F915F914F913F912F916E
S1131EB00F9000923B000F9000923F000F901F90F4
S1131EC018951F920F9200903F000F9211240090DA
S1131ED03B000F922F933F934F935F936F937F93A6
S1131EE08F939F93AF93BF93EF93FF93CF93DF931E
S1131EF0CDB7DEB780916E2290916F22892B31F09D
S1131F0080916E2290916F22FC0119950000DF915F
S1131F10CF91FF91EF91BF91AF919F918F917F915D
S1131F206F915F914F913F912F910F9000923B00E1
S1131F300F9000923F000F901F9018951F920F92E0
S1131F4000903F000F92112400903B000F922F93BA
S1131F503F934F935F936F937F938F939F93AF932D
S1131F60BF93EF93FF93CF93DF93CDB7DEB7809109
S1131F70702290917122892B31F08091702290917E
S1131F807122FC0119950000DF91CF91FF91EF912F
S1131F90BF91AF919F918F917F916F915F914F917D
S1131FA03F912F910F9000923B000F9000923F00C1
S1131FB00F901F9018951F920F9200903F000F9260
S1131FC0112400903B000F922F933F934F935F9304
S1131FD06F937F938F939F93AF93BF93EF93FF93ED
S1131FE0CF93DF93CDB7DEB78091722290917322A5
S1131FF0892B31F08091722290917322FC01199502
S11320000000DF91CF91FF91EF91BF91AF919F912C
S11320108F917F916F915F914F913F912F910F908D
S113202000923B000F9000923F000F901F90189574
S11320301F920F9200903F000F92112400903B00DA
S11320400F922F933F934F935F936F937F938F934D
S11320509F93AF93BF93EF93FF93CF93DF93CDB74A
S1132060DEB78091742290917522892B31F0809192
S1132070742290917522FC0119950000DF91CF9193
S1132080FF91EF91BF91AF919F918F917F916F914C
S11320905F914F913F912F910F9000923B000F90D1
S11320A000923F000F901F9018951F920F9200907E
S11320B03F000F92112400903B000F922F933F9307
S11320C04F935F936F937F938F939F93AF93BF933C
S11320D0EF93FF93CF93DF93CDB7DEB78091762252
S11320E090917722892B31F08091762290917722FA
S11320F0FC0119950000DF91CF91FF91EF91BF9101
S1132100AF919F918F917F916F915F914F913F918B
S11321102F910F9000923B000F9000923F000F9080
S11321201F9018951F920F9200903F000F92112458
S113213000903B000F922F933F934F935F936F93C5
S11321407F938F939F93AF93BF93EF93FF93CF931B
S1132150DF93CDB7DEB78091782290917922892BD5
S113216031F08091782290917922FC011995000038
S1132170DF91CF91FF91EF91BF91AF919F918F919B
S11321807F916F915F914F913F912F910F900092AA
S11321903B000F9000923F000F901F9018951F92E4
S11321A00F9200903F000F92112400903B000F9279
S11321B02F933F934F935F936F937F938F939F934B
S11321C0AF93BF93EF93FF93CF93DF93CDB7DEB776
S11321D080917A2290917B22892B31F080917A220E
S11321E090917B22FC0119950000DF91CF91FF9122
S11321F0EF91BF91AF919F918F917F916F915F917B
S11322004F913F912F910F9000923B000F900092BD
S11322103F000F901F9018951F920F9200903F005F
S11322200F92112400903B000F922F933F934F93F2
S11322305F936F937F938F939F93AF93BF93EF932A
S1132240FF93CF93DF93CDB7DEB780917C2290913B
S11322507D22892B31F080917C2290917D22FC019A
S113226019950000DF91CF91FF91EF91BF91AF914C
S11322709F918F917F916F915F914F913F912F919A
S11322800F9000923B000F9000923F000F901F9020
S113229018951F920F9200903F000F921124009006
S11322A03B000F922F933F934F935F936F937F93D2
S11322B08F939F93AF93BF93EF93FF93CF93DF934A
S11322C0CDB7DEB780917E2290917F22892B31F0A9
S11322D080917E2290917F22FC0119950000DF916C
S11322E0CF91FF91EF91BF91AF919F918F917F918A
S11322F06F915F914F913F912F910F9000923B000E
S11323000F9000923F000F901F9018951F920F920C
S113231000903F000F92112400903B000F922F93E6
S11323203F934F935F936F937F938F939F93AF9359
S1132330BF93EF93FF93CF93DF93CDB7DEB7809135
S1132340802290918122892B31F08091802290917A
S11323508122FC0119950000DF91CF91FF91EF914B
S1132360BF91AF919F918F917F916F915F914F91A9
S11323703F912F910F9000923B000F9000923F00ED
S11323800F901F9018951F920F9200903F000F928C
S1132390112400903B000F922F933F934F935F9330
S11323A06F937F938F939F93AF93BF93EF93FF9319
S11323B0CF93DF93CDB7DEB78091822290918322B1
S11323C0892B31F08091822290918322FC0119950E
S11323D00000DF91CF91FF91EF91BF91AF919F9159
S11323E08F917F916F915F914F913F912F910F90BA
S11323F000923B000F9000923F000F901F901895A1
S11324001F920F9200903F000F92112400903B0006
S11324100F922F933F934F935F936F937F938F9379
S11324209F93AF93BF93EF93FF93CF93DF93CDB776
S1132430DEB78091842290918522892B31F080919E
S1132440842290918522FC0119950000DF91CF919F
S1132450FF91EF91BF91AF919F918F917F916F9178
S11324605F914F913F912F910F9000923B000F90FD
S113247000923F000F901F901895CF93DF9300D0E8
S1132480CDB7DEB78A839B830E946B0989838A81D7
S11324909B818115984049F461E083E00E946F209C
S11324A064E083E00E946F2058C08A819B8180345D
S11324B0984049F462E083E00E946F2064E083E086
S11324C00E946F204AC08A819B818115994049F4FA
S11324D061E084E00E946F2064E084E00E946F2049
S11324E03CC08A819B818034994049F462E084E055
S11324F00E946F2064E084E00E946F202EC08A81D5
S11325009B8181159A4049F461E085E00E946F2027
S113251064E085E00E946F2020C08A819B81803422
S11325209A4049F462E085E00E946F2064E085E00F
S11325300E946F2012C08A819B8181159B4049F4BF
S113254061E086E00E946F2064E086E00E946F20D4
S113255004C089810E947B0906C081E00E948B0926
S113256089810E947B092396CDBFDEBFDF91CF9185
S11325700895CF93DF931F921F92CDB7DEB789835F
S11325809A8389819A81FC018481282F2061898121
S11325909A81FC01248300000F900F90DF91CF916A
S11325A00895CF93DF93CDB7DEB72597CDBFDEBFB8
S11325B089839A836B834C832D839B818C81892BA4
S11325C0982F8D81882311F088E001C080E0892B49
S11325D0282F89819A81FC01258300002596CDBF8F
S11325E0DEBFDF91CF910895CF93DF931F921F92A7
S11325F0CDB7DEB789839A8389819A81FC0184816E
S1132600282F286089819A81FC01248300000F907F
S11326100F90DF91CF910895CF93DF9300D0CDB782
S1132620DEB789839A836B8389819A81FC018581D2
S1132630982F9F738B81892B282F89819A81FC0184
S1132640258300002396CDBFDEBFDF91CF9108958F
S1132650CF93DF931F921F92CDB7DEB789839A83FE
S113266089819A81FC018181882F90E08072992769
S113267021E0892B09F420E0822F0F900F90DF9145
S1132680CF910895CF93DF93CDB7DEB780E09CE67A
S1132690ACEDB2E0BC01CD01DF91CF910895CF93B1
S11326A0DF931F92CDB7DEB7198281E08983EADF19
S11326B0DC01CB012981222F30E004C0B695A79517
S11326C0979587952A95D2F7BC01CD010F90DF919C
S11326D0CF910895CF93DF93CDB7DEB7E0DFDC0170
S11326E0CB01BC01CD01DF91CF910895CF93DF934E
S11326F0CDB7DEB7EFDFDC01CB01BC01CD01DF914B
S1132700CF910895CF93DF931F921F92CDB7DEB779
S113271089839A8389819A81892B09F421C18981CA
S11327209A81803C910529F460E180E00E946F2049
S113273017C189819A818038914029F462E080E050
S11327400E946F200DC189819A818115914029F4DD
S113275061E080E00E946F2003C189819A81803802
S1132760934029F461E081E00E946F20F9C08981DF
S11327709A818039934029F461E082E00E946F20BD
S1132780EFC089819A818115924029F462E081E049
S11327900E946F20E5C089819A818034924029F497
S11327A062E082E00E946F20DBC089819A818032DE
S11327B0934029F464E082E00E946F20D1C08981B3
S11327C09A818115984029F461E083E00E946F208A
S11327D0C7C089819A818115994029F461E084E018
S11327E00E946F20BDC089819A8181159A4029F485
S11327F061E085E00E946F20B3C089819A818115D0
S11328009B4029F461E086E00E946F20A9C0898181
S11328109A818034984029F462E083E00E946F201A
S11328209FC089819A818034994029F462E084E0D0
S11328300E946F2095C089819A8180349A4029F43E
S113284062E085E00E946F208BC089819A81803983
S1132850984029F464E083E00E946F2081C089815C
S11328609A818039994029F464E084E00E946F20C1
S113287077C089819A8180399A4029F464E085E09F
S11328800E946F206DC089819A8180399B4029F410
S113289064E086E00E946F2063C089819A81803C55
S11328A0984029F468E083E00E946F2059C0898130
S11328B09A81803C994029F468E084E00E946F206A
S11328C04FC089819A81803A984029F460E183E07D
S11328D00E946F2045C089819A81803A994029F4E9
S11328E060E184E00E946F203BC089819A81803A34
S11328F09A4029F460E185E00E946F2031C089810B
S11329009A81803A9B4029F460E186E00E946F201E
S113291027C089819A81803B984029F460E283E052
S11329200E946F201DC089819A81803B994029F4BF
S113293060E284E00E946F2013C089819A8180380C
S1132940944029F460E483E00E946F2009C08981E7
S11329509A81803A944021F460E485E00E946F20DB
S113296000000F900F90DF91CF9108950F931F9364
S1132970CF93DF93CDB7DEB72597CDBFDEBF8A8374
S11329809B836C837D838A819B81BCDE8A819B814E
S113299060E042DE8C819D81FC0126818C819D81D9
S11329A0FC0145818C819D81FC0134818A819B815C
S11329B0632FF7DD9BDE9B01AC018C819D81FC01C3
S11329C080819181A281B381EA81FB8189019A018D
S11329D0AC01BD01CF012ED089838A819B8104DEA5
S11329E08A819B81C6DD89812596CDBFDEBFDF91BB
S11329F0CF911F910F910895CF93DF9300D0CDB75E
S1132A00DEB789839A836B83000089819A8120DEF3
S1132A10982F81E089278823C1F789819A812B81A6
S1132A20FC01208380E090E02396CDBFDEBFDF91E0
S1132A30CF910895EF92FF920F931F93CF93DF935B
S1132A40CDB7DEB76F97CDBFDEBF8E8B9F8B488F20
S1132A50598F6A8F7B8F0C8F1D8F2E8F3F8F8C8D9C
S1132A609D8DAE8DBF8D689412F8B695A7959795F8
S1132A7087951694D1F78E879F87A88BB98B8C8DF9
S1132A809D8DAE8DBF8D072E76E1B695A795979552
S1132A9087957A95D1F7702D8A879B87AC87BD87F8
S1132AA08E899F89FC018481882F90E08470992706
S1132AB0892BC1F48E859F85A889B989B695A79578
S1132AC0979587958E879F87A88BB98B8A859B85D9
S1132AD0AC85BD85B695A795979587958A879B877D
S1132AE0AC87BD87288D398D4A8D5B8D8E859F85FA
S1132AF0A889B98982179307A407B50768F0288DB8
S1132B00398D4A8D5B8D8A859B85AC85BD8528175B
S1132B1039074A075B0710F480E040C18E899F891A
S1132B20FC018481882F90E084709927892B61F4BB
S1132B30888D998DAA8DBB8D880F991FAA1FBB1FE5
S1132B40888F998FAA8FBB8F8FEF90E0A0E0B0E0C1
S1132B508E839F83A887B9878C8D9D8DAE8DBF8D05
S1132B60288D398D4A8D5B8DBC01CD010E94CA3CF4
S1132B70DA01C9018A8B9B8BAC8BBD8B89EF89836E
S1132B8028C02A893B894C895D898E819F81A885CB
S1132B90B985281739074A075B07F8F08E819F81AA
S1132BA0A885B985880F991FAA1FBB1F8E839F8391
S1132BB0A887B98789818D3F4CF48E819F81A88530
S1132BC0B98581608E839F83A887B98789818F5F48
S1132BD0898389818730ACF201C000008981882310
S1132BE00CF08AC0888D998DAA8DBB8D880F991F92
S1132BF0AA1FBB1F880F991FAA1FBB1F880F991FED
S1132C00AA1FBB1F9C01AD018C8D9D8DAE8DBF8D08
S1132C10821B930BA40BB50B8C8F9D8FAE8FBF8F34
S1132C2089818E3F94F58981082E000C990B2DEF34
S1132C303FEF281B390B8C8D9D8DAE8DBF8D7C0194
S1132C408D0104C0EE0CFF1C001F111F2A95D2F742
S1132C50A8019701888D998DAA8DBB8DB695A795EE
S1132C6097958795820F931FA41FB51F288D398DC3
S1132C704A8D5B8DBC01CD010E94CA3CDA01C901B9
S1132C808A839B83AC83BD8370C08981082E000C2A
S1132C90990B9C012D5F3F4F888D998DAA8DBB8D1B
S1132CA004C0880F991FAA1FBB1F2A95D2F7888FCB
S1132CB0998FAA8FBB8F888D998DAA8DBB8D9C010E
S1132CC0AD0156954795379527958C8D9D8DAE8D85
S1132CD0BF8D820F931FA41FB51F288D398D4A8D78
S1132CE05B8DBC01CD010E94CA3CDA01C9018A8313
S1132CF09B83AC83BD8339C08981082E000C990B5A
S1132D009C012D5F3F4F888D998DAA8DBB8D04C08A
S1132D10880F991FAA1FBB1F2A95D2F7888F998FF6
S1132D20AA8FBB8F888D998DAA8DBB8D9C01AD0117
S1132D3056954795379527958C8D9D8DAE8DBF8D76
S1132D40820F931FA41FB51F288D398D4A8D5B8D6B
S1132D50BC01CD010E94CA3CDA01C9010197A10955
S1132D60B1098A839B83AC83BD838A819B81AC81B7
S1132D70BD81892F9A2FAB2FBB27982F9F708981F4
S1132D808295807F292F282B8E899F89FC01278398
S1132D902A818E899F89FC01268381E06F96CDBFAD
S1132DA0DEBFDF91CF911F910F91FF90EF900895B7
S1132DB0CF93DF93CDB7DEB72797CDBFDEBF8D832B
S1132DC06E837F838D8189838981882F90E09C0124
S1132DD02770332781E090E002C0880F991F2A955D
S1132DE0E2F7682F8D818A838A818B838B81869514
S1132DF0869586958C838C81882F90E0880F991F07
S1132E0082959295907F9827807F98279A5F9C015E
S1132E108E819F81AC01C9010E94CF2000002796BA
S1132E20CDBFDEBFDF91CF910895CF93DF93CDB7B0
S1132E30DEB761E070E080E1BBDF61E070E081E17A
S1132E40B7DF60E070E080E0B3DF60E070E08AE16B
S1132E50AFDF61E070E08BE1ABDF60E070E08AE25D
S1132E60A7DF61E070E08BE2A3DF0000DF91CF9188
S1132E700895CF93DF931F92CDB7DEB7898388E49B
S1132E8090E028E430E0F9012081322F317F29815C
S1132E90232BFC01208300000F90DF91CF91089534
S1132EA0CF93DF931F92CDB7DEB789838981882FB3
S1132EB090E00197825F9F4DFC018081DADF88E416
S1132EC090E028E430E0F90120812160FC012083B6
S1132ED07894889588E490E028E430E0F901208132
S1132EE02E7FFC01208300000F90DF91CF91089585
S1132EF0CF93DF931F92CDB7DEB719820AC08981C1
S1132F00882F90E0845B964DFC01108289818F5F4D
S1132F1089838981853098F381E080935129000069
S1132F200F90DF91CF910895CF93DF9300D0CDB769
S1132F30DEB719828CE499E28A839B8308C08A8174
S1132F409B8101968A839B8389818F5F89838A8190
S1132F509B81FC018081882391F389812396CDBFD5
S1132F60DEBFDF91CF910895CF93DF931F92CDB74A
S1132F70DEB7F894D9DF89838981882311F47894A2
S1132F8002C089818DDF0F90DF91CF910895CF9397
S1132F90DF93CDB7DEB780E09CE6ACEDB2E0BC01D8
S1132FA0CD01DF91CF910895CF93DF931F92CDB7D9
S1132FB0DEB7198281E08983EADFDC01CB01298154
S1132FC0222F30E004C0B695A795979587952A954A
S1132FD0D2F7BC01CD010F90DF91CF910895CF932B
S1132FE0DF93CDB7DEB7E0DFDC01CB01BC01CD015F
S1132FF0DF91CF910895CF93DF93CDB7DEB7EFDFA5
S1133000DC01CB01BC01CD01DF91CF910895CF93B9
S1133010DF93CDB7DEB7EFDFDC01CB01BC01CD011F
S1133020DF91CF9108956150710981099109D9F710
S11330300895CF93DF93CDB7DEB780EA90E027E021
S1133040FC0122830000DF91CF910895CF93DF9399
S1133050CDB7DEB72597CDBFDEBF89839A836B8357
S11330604C835D8389819A8180749927892B99F592
S11330708B81882F90E082309105A1F083309105F7
S11330801CF4019739F046C08330910599F00497F8
S1133090C9F040C089819A812C813D81FC0120AF17
S11330A031AF38C089819A812C813D81FC0122AFE6
S11330B033AF30C089819A812C813D81FC0124AFDA
S11330C035AF28C089819A812C813D81FC0126AFCE
S11330D037AF00001FC089819A8180749927892B9A
S11330E0C9F08B81882F90E08130910519F0029707
S11330F049F010C089819A812C813D81FC0120AF67
S113310031AF08C089819A812C813D81FC0122AFB5
S113311033AF00002596CDBFDEBFDF91CF91089578
S1133120CF93DF9300D0CDB7DEB789839A836B83C7
S113313089819A81FC01858196819C0140E050E05F
S11331408B81882F90E0A0E0B0E0BC01CD010E940B
S1133150A73CDC01CB0124E630E040E050E0BC01B8
S1133160CD010E94CA3CDA01C9019C0189819A817E
S1133170FC01628189819A81FC0180819181A9018C
S113318065DF00002396CDBFDEBFDF91CF910895A8
S1133190CF93DF931F921F92CDB7DEB789839A83B3
S11331A00DC089819A819C012F5F3F4F29833A8307
S11331B0FC018081682F80EA9BE01EDC89819A8172
S11331C0FC018081882369F700000F900F90DF9144
S11331D0CF910895CF92DF92EF92FF92CF93DF9336
S11331E0CDB7DEB72C97CDBFDEBF8091FF28882FE7
S11331F090E08736910509F42FC38836910544F48D
S113320084369105D1F18536910509F488C0B3C39C
S11332108337910509F4A7C08637910509F488C05E
S11332208836910509F0A7C387EF90E20E940A0946
S11332308DEF90E20E940A0980E091E20E940A095F
S11332408DEF90E20E940A0983E191E20E940A094B
S11332508DEF90E20E940A0985E291E20E940A0938
S11332608DEF90E20E940A0981E491E20E940A092A
S11332708DEF90E20E940A098AC310929022109264
S113328091221092922210929322109294221092E0
S113329095221092962210929722109288221092D0
S11332A0892210928A2210928B2210928C221092E0
S11332B08D2210928E2210928F22809188229091DA
S11332C08922A0918A22B0918B22BC01CD010E9457
S11332D0143BDC01CB01682F84E499E221DF809167
S11332E08C2290918D22A0918E22B0918F22BC01CC
S11332F0CD010E94143BDC01CB01682F8CE399E2E1
S11333000FDF80914329882309F43EC38BE591E2C2
S11333100E940A098DEF90E20E940A0935C380E7F2
S113332091E20E940A098DEF90E20E940A092FC3DC
S113333080914329882359F01092432984E891E22B
S11333400E940A098DEF90E20E940A0920C381E0DD
S1133350809343298CE991E20E940A098DEF90E25F
S11333600E940A0914C3809100298D3309F00EC309
S1133370CE01099644E050E061E079E20E947B3E90
S11333801C86CE0109964AE050E060E070E00E949D
S1133390383DDC01CB01BC01CD010E94423BDC0184
S11333A0CB018093902290939122A0939222B09388
S11333B093228091902290919122A0919222B09197
S11333C0932220E030E0A901BC01CD010E94693ABA
S11333D0882344F410929022109291221092922207
S11333E0109293228091902290919122A091922206
S11333F0B091932220E030E048EC52E4BC01CD01CE
S11334000E94403C181664F480E090E0A8ECB2E41A
S11334108093902290939122A0939222B09393222E
S11334208091902290919122A0919222B091932226
S11334302091902230919122409192225091932296
S1133440BC01CD010E94443CDC01CB0189839A83F9
S1133450AB83BC838091902290919122A09192227F
S1133460B09193229C01AD0169817A818B819C8109
S11334700E94443CDC01CB018D839E83AF83B887DB
S11334808091902290919122A0919222B0919322C6
S113349020E030E040EA51E4BC01CD010E94693AE9
S11334A088230CF051C02CE333E14AE15BE36D81E6
S11334B07E818F8198850E94443CDC01CB016C01A4
S11334C07D0122EE35EE49EE5CE369817A818B81E0
S11334D09C810E94443CDC01CB019C01AD01C701ED
S11334E0B6010E94043ADC01CB016C017D0180919C
S11334F0902290919122A0919222B091932225E161
S11335003DEA44E55FE3BC01CD010E94443CDC019B
S1133510CB019C01AD01C701B6010E94053ADC0153
S1133520CB0123E437E542E25DE3BC01CD010E9417
S1133530043ADC01CB018093942290939522A093CA
S11335409622B093972250C029E430E14EEA58E322
S11335506D817E818F8198850E94443CDC01CB0182
S11335606C017D012CE33EE24AE25CE369817A81ED
S11335708B819C810E94443CDC01CB019C01AD0108
S1133580C701B6010E94043ADC01CB016C017D0144
S11335908091902290919122A0919222B0919322B5
S11335A021EF34EF40E95FE3BC01CD010E94443CCC
S11335B0DC01CB019C01AD01C701B6010E94053AB3
S11335C0DC01CB0120E434E942EE50E4BC01CD013E
S11335D00E94053ADC01CB018093942290939522BA
S11335E0A0939622B0939722809194229091952251
S11335F0A0919622B091972226E636E646E65FE34E
S1133600BC01CD010E94443CDC01CB0120E030E050
S113361040E251E4BC01CD010E94053ADC01CB013A
S11336208093882290938922A0938A22B0938B223C
S11336308091942290919522A0919622B091972204
S113364020E030E040EA51E4BC01CD010E94043A9C
S1133650DC01CB0120E030E040EA5FE3BC01CD01B6
S11336600E94443CDC01CB0180938C2290938D22F8
S1133670A0938E22B0938F228091882290918922E8
S1133680A0918A22B0918B2220E030E0A901BC01F4
S1133690CD010E94693A88234CF41092882210923A
S11336A0892210928A2210928B221EC08091882235
S11336B090918922A0918A22B0918B2220E030E05F
S11336C048EC52E4BC01CD010E94403C181664F45D
S11336D080E090E0A8ECB2E4809388229093892261
S11336E0A0938A22B0938B2280918C2290918D2278
S11336F0A0918E22B0918F2220E030E0A901BC017C
S1133700CD010E94693A88234CF410928C221092C5
S11337108D2210928E2210928F221EC080918C22B4
S113372090918D22A0918E22B0918F2220E030E0E2
S113373048EC52E4BC01CD010E94403C181664F4EC
S113374080E090E0A8ECB2E480938C2290938D22E8
S1133750A0938E22B0938F22809188229091892207
S1133760A0918A22B0918B22BC01CD010E94143B0E
S1133770DC01CB01682F84E499E2D2DC80918C22B5
S113378090918D22A0918E22B0918F22BC01CD0107
S11337900E94143BDC01CB01682F8CE399E2C0DC6E
S11337A080914329882309F4F1C083EB91E20E94BC
S11337B00A098FEF98E20E940A098FEB91E20E94B6
S11337C00A09CE0109960E940A0981ED91E20E943C
S11337D00A098091902290919122A0919222B09115
S11337E09322BC01CD010E940F3BDC01CB01BC0143
S11337F0CD010E94B4088CED91E20E940A098091E7
S1133800882290918922A0918A22B0918B22BC01B6
S1133810CD010E940F3BDC01CB01BC01CD010E9414
S1133820B40884EE91E20E940A0980918C2290915E
S11338308D22A0918E22B0918F22BC01CD010E94D5
S11338400F3BDC01CB01BC01CD010E94B4088DEF1C
S113385090E20E940A099AC080914329882309F4BE
S113386047C083ED91E20E940A09809190229091D1
S11338709122A0919222B0919322BC01CD010E9489
S11338800F3BDC01CB01BC01CD010E94B4088CEDDF
S113389091E20E940A098091882290918922A09144
S11338A08A22B0918B22BC01CD010E940F3BDC0126
S11338B0CB01BC01CD010E94B40884EE91E20E94C8
S11338C00A0980918C2290918D22A0918E22B09130
S11338D08F22BC01CD010E940F3BDC01CB01BC0156
S11338E0CD010E94B4088DEF90E20E940A094FC0F6
S11338F08091902290919122A0919222B091932252
S1133900BC01CD010E940F3BDC01CB01BC01CD0108
S11339100E94B4088CEE91E20E940A0980918822E8
S113392090918922A0918A22B0918B22BC01CD0171
S11339300E940F3BDC01CB01BC01CD010E94B40805
S11339408CEE91E20E940A0980918C2290918D2242
S1133950A0918E22B0918F22BC01CD010E940F3B19
S1133960DC01CB01BC01CD010E94B4088DEF90E2D3
S11339700E940A090CC08EEE91E20E940A098DEFA2
S113398090E20E940A0903C0000001C00000000088
S11339902C96CDBFDEBFDF91CF91FF90EF90DF90EB
S11339A0CF9008952F923F924F925F926F927F92A1
S11339B08F929F92AF92BF92CF92DF92EF92FF923B
S11339C00F931F93CF93DF93CDB7DEB72897CDBF67
S11339D0DEBF80EA90E027E0FC012283789488DA55
S11339E026D360E184E07BD360E070E280EA99E072
S11339F00E94B61460E186E072D367E070E280EA68
S1133A009BE00E94B61411DA14DB20EC3DE541E0A2
S1133A1060E084E499E20E94FF0620EC3DE542E088
S1133A2060E08CE399E20E94FF0660E084E499E29E
S1133A300E94670860E08CE399E20E9467086EEFD9
S1133A4080EA9BE00E94FC1468E580EA9BE00E9407
S1133A50FC146EEF80EA9BE00E94FC1468E480EAA8
S1133A609BE00E94FC148CE192E292DB6EEF80EA10
S1133A709BE00E94FC1467E480EA9BE00E94FC1433
S1133A8061E080EA9BE00E94FC1462E080EA9BE033
S1133A900E94FC148DE292E27BDBB9DADC01CB01FB
S1133AA08C019D0140E050E0BA0109831A832B8305
S1133AB03C834D835E836F83788729803A804B8073
S1133AC05C806D807E808F809884222D332D442DE0
S1133AD0552D662D772D882D992D02E00E94FE3CF0
S1133AE0A22EB32EC42ED52EE62EF72E082F192F74
S1133AF02A2C3B2C4C2C5D2C6E2C7F2C802E912E52
S1133B00222D332D442D552D662D772D882D992D5D
S1133B1005E00E94FE3CA22EB32EC42ED52EE62E26
S1133B20F72E082F192F2A2D3B2D4C2D5D2D6E2D90
S1133B307F2D802F912FA22CB32CC42CD52CE62CB6
S1133B40F72C082D192D0E94203DA22EB32EC42E31
S1133B50D52EE62EF72E082F192F2A2D3B2D4C2D6E
S1133B605D2D6E2D7F2D802F912FA980BA80CB8063
S1133B70DC80ED80FE800F8118850E94173DA22E07
S1133B80B32EC42ED52EE62EF72E082F192F2A2D4C
S1133B903B2D4C2D5D2D6E2D7F2D802F912F04E01C
S1133BA00E94FE3C222E332E442E552E662E772E56
S1133BB0882E992EA22CB32CC42CD52CE62CF72CB1
S1133BC0082D192D2A2C3B2C4C2C5D2C6E2C7F2C73
S1133BD0802E912E222D332D442D552D662D772D9B
S1133BE0882D992D29513C4F4F4F5F4F6F4F7F4F79
S1133BF08F4F9F4FA22EB32EC42ED52EE62EF72E16
S1133C00082F192F2A2D3B2D4C2D5D2D6E2D7F2D28
S1133C10802F912F0E947D3BDC01CB0120E030E816
S1133C204BEB55E4BC01CD010E946D3ADC01CB01A4
S1133C30BC01CD010E94DA3AA22EB32EC42ED52E99
S1133C40E62EF72E082F192FD601C501BC01CD0190
S1133C50EAD90E94082A88D980913B298130D9F772
S1133C600E94E308B7DA10923B29F5CFCF93DF9394
S1133C70CDB7DEB70000DF91CF910895CF93DF93E6
S1133C80CDB7DEB70000DF91CF910895CF93DF93D6
S1133C90CDB7DEB780918622DF91CF910895CF937F
S1133CA0DF931F92CDB7DEB7898381E080938622AC
S1133CB01092872281E00F90DF91CF910895CF93E6
S1133CC0DF931F92CDB7DEB789831092862200005E
S1133CD00F90DF91CF910895CF93DF931F921F929E
S1133CE0CDB7DEB789836A838A81882389F0898185
S1133CF0282F30E081E090E002C0880F991F2A95B8
S1133D00E2F7982F80918722892B8093872210C015
S1133D108981282F30E081E090E002C0880F991F4C
S1133D202A95E2F7809590918722892380938722B0
S1133D3000000F900F90DF91CF910895CF93DF9300
S1133D401F92CDB7DEB78FE390E0FC0180818983B9
S1133D50F89489810F90DF91CF910895CF93DF93E9
S1133D601F92CDB7DEB789838FE390E02981FC01F0
S1133D70208300000F90DF91CF910895CF93DF93BC
S1133D801F921F92CDB7DEB78A83D8DF898380E57F
S1133D9090E020E530E0F90130812A81232BFC01F9
S1133DA020838981DBDF00000F900F90DF91CF919A
S1133DB00895CF93DF931F92CDB7DEB789830000B8
S1133DC00F90DF91CF910895CF93DF931F921F92AD
S1133DD0CDB7DEB78A83B2DF898380E590E020E542
S1133DE030E0F9012081322F2A8120952323FC0120
S1133DF020838981B3DF00000F900F90DF91CF9172
S1133E000895CF93DF931F92CDB7DEB7898389815D
S1133E10883019F08981B2DF02C08981CADF0000CD
S1133E200F90DF91CF910895CF93DF931F92CDB779
S1133E30DEB7898380E590E0FC0191818981982334
S1133E4081E0992309F480E00F90DF91CF910895E8
S1133E50CF93DF9300D0CDB7DEB78A836B836EDF59
S1133E6089838A81882F90E08130910519F0029727
S1133E7019F166C08B81883061F484E0C2DF80E58B
S1133E8090E020E530E0F90126812160FC012683E1
S1133E9009C080E590E020E530E0F90126812E7F1D
S1133EA0FC01268388E690E028E630E0F9012081D1
S1133EB02160FC01208344C080E590E020E530E0EF
S1133EC0F9012681297FFC0126838B81883061F4E6
S1133ED084E097DF80E590E020E530E0F901268179
S1133EE02260FC01268322C08B81843049F480E562
S1133EF090E020E530E0F9012681FC01268316C01C
S1133F008B818F3F99F480E690E020E8FC012583C3
S1133F1080E690E02BEBFC01268380E590E020E531
S1133F2030E0F90126812460FC01268380E690E0DC
S1133F3020E630E0F90120812160FC0120830000AB
S1133F4089810CDF00002396CDBFDEBFDF91CF91C6
S1133F500895CF93DF9300D0CDB7DEB789836A830A
S1133F607B838981882F90E08130910519F0029735
S1133F7081F01EC088E690E09E012E5F3F4FF9015C
S1133F802081FC01228388E690E02B81FC012383BD
S1133F900FC080E690E09E012E5F3F4FF901208123
S1133FA0FC01228380E690E02B81FC012383000046
S1133FB000002396CDBFDEBFDF91CF910895CF934C
S1133FC0DF931F92CDB7DEB78983000089812CDF90
S1133FD0982F81E089278823C9F700000F90DF918B
S1133FE0CF910895CF93DF931F921F92CDB7DEB781
S1133FF089836A8399818A81892B682F81E490E07F
S1134000BED000000F900F90DF91CF910895CF9311
S1134010DF931F92CDB7DEB789838981882F90E023
S1134020BC0182E0B2D00F90DF91CF9108950F933D
S11340301F93CF93DF9300D000D0CDB7DEB780E7D6
S113404090E089839A831C821B820DC089819A81A6
S11340509C012F5F3F4F29833A832FEFFC0120837C
S11340608B818F5F8B838B81873080F360E084E06A
S1134070B9DF8E010B5F1F4F0F5F1F4F8CE1C7DF4E
S1134080F80180838E010B5F1F4F8DE1C0DFF801C3
S113409080838D819E81019621F480E493E28D8357
S11340A09E838D819E81BC0182E053DF82E0A9DE84
S11340B082E085DF6FEF82E0CBDE000061E080E428
S11340C090E05DD08C81882311F481E07DDE26961A
S11340D0CDBFDEBFDF91CF911F910F910895CF9394
S11340E0DF9300D0CDB7DEB78A836B8327DE898365
S11340F08A81882F90E080599F4F2A81222F30E0B7
S113410020593F4FF9012081322F2B812095232301
S1134110FC012083898122DE00002396CDBFDEBF0F
S1134120DF91CF910895CF93DF931F921F92CDB764
S1134130DEB78A838A81863019F488E1898301C0D5
S1134140198282E071DE982F81E08927882339F073
S113415082E057DE82E033DF6FEF82E079DE89812F
S11341608360682F84E490E00AD0000060E480E07B
S1134170B6DF00000F900F90DF91CF9108951BBE22
S1134180FC0128ED24BF608308954091CA01E62F05
S1134190F72F8093CA0184914093CA010895CF9365
S11341A0DF9300D000D0CDB7DEB78A839B836C83C6
S11341B04D835E83198220C08C81882F90E02981F1
S11341C0222F30E002C0959587952A95E2F78170F9
S11341D09927892B71F08981882F90E040962A8154
S11341E03B81820F931F2D813E81232F3327FC01B6
S11341F0208389818F5F898389818830E8F28D816A
S11342009E8181709927892BD1F08D819E81827046
S11342109927892B39F08A819B8105962C81FC0191
S1134220208306C08A819B8106962C81FC01208311
S11342308A819B8101962C81FC01208306C08A819E
S11342409B8102962C81FC01208300002696CDBF21
S1134250DEBFDF91CF910895CF93DF931F92CDB747
S1134260DEB78FE390E0FC0180818983F894898133
S11342700F90DF91CF910895CF93DF931F92CDB725
S1134280DEB789838FE390E02981FC01208300005D
S11342900F90DF91CF910895CF93DF931F921F92D8
S11342A0CDB7DEB71A821092AC228A81882F90E0B3
S11342B0880F991F81569D4DFC01108211828A81BD
S11342C0882F90E0880F991F9C01220F331F220F23
S11342D0331F820F931F8E559D4D21EAFC012083CD
S11342E08A81882F90E0880F991F9C01220F331F29
S11342F0220F331F820F931F8D559D4D20E2FC0129
S113430020838A81882F90E0880F991F9C01220FB7
S1134310331F220F331F820F931F8C559D4DFC01B9
S1134320108211828A81882F90E0892B11F41982DE
S113433002C0198200008A81882F90E02981222FEF
S113434030E0880F991FAC01440F551F440F551FCF
S1134350840F951F8A559D4DFC01208331838A81EA
S1134360882F90E0880F991F9C01220F331F220F82
S1134370331F820F931F88559D4D22E030E0FC01CE
S1134380208331838A81882F90E0880F991F9C01B4
S1134390220F331F220F331F820F931F86559D4D0B
S11343A0FC01108211828A81282F30E0C901880F14
S11343B0991F880F991F880F991F821B930B9C01CB
S11343C028563D4D80E092ECA1E0B0E0F9018083F5
S11343D09183A283B3838A81282F30E0C901880F97
S11343E0991F880F991F880F991F821B930B84565E
S11343F09D4DFC0110828A81282F30E0C901880F6D
S1134400991F880F991F880F991F821B930B83563E
S11344109D4DFC0110828A81282F30E0C901880F4C
S1134420991F880F991F880F991F821B930B82561F
S11344309D4D28E0FC0120838A8131DC982F81E0A6
S11344408927882311F080E006C08091AC228F5F19
S11344508093AC2281E00F900F90DF91CF9108956B
S1134460CF93DF931F92CDB7DEB719821092AD229E
S11344708981882F90E08154984DFC0110828981B4
S1134480882F90E08054984DFC0110828981882FF8
S113449090E08454984DFC0110828981882F90E02B
S11344A0880F991F880F991F8854984DFC0110821A
S11344B011828981882F90E0880F991F880F991F96
S11344C08654984DFC01108211828981882F90E0D6
S11344D0880F991F8354984DFC01108211828981A1
S11344E092D28981882F90E0895C9A4DFC011082D8
S11344F08981882F90E08C5C9A4DFC01108289811F
S1134500882F90E0880F991F880F991F805D9A4D1E
S1134510FC01108211828981882F90E0880F991FF5
S11345208B5C9A4DFC0110821182898106D1982FEF
S113453081E08927882311F080E00DC08091AD22AD
S11345408F5F8093AD228091AD22813019F481E098
S11345508093AE2281E00F90DF91CF910895CF93A5
S1134560DF93CDB7DEB78091AC2281508093AC222B
S11345700000DF91CF910895CF93DF931F92CDB7C1
S1134580DEB78091AD2281508093AD228091AD221F
S11345908983898194DB1092AE2200000F90DF9111
S11345A0CF910895CF93DF931F92CDB7DEB7A4D0F8
S11345B0898380915229882384F580915229882FF8
S11345C090E080769927809741F580915329882F30
S11345D090E0819711F58091582990915929079776
S11345E011F080E06AC08981282F30E0C901880F6A
S11345F0991F880F991F880F991F821B930B885648
S11346009D4D80935A2990935B2987E090E0809395
S11346105C2990935D2981E050C0809152298823C0
S11346200CF44AC080915229882F90E08076992713
S1134630809709F041C080915329882F90E08032FF
S1134640910519F0829749F137C0809158299091CA
S11346505929079711F080E030C081E993E28093F3
S11346605E2990935F298981282F30E0C901880F42
S1134670991F880F991F880F991F821B930B8856C7
S11346809D4D80935A2990935B2987E090E0809315
S11346905C2990935D2981E010C080915429909108
S11346A055298170992721E0892B09F420E0622F94
S11346B0898112DB81E001C080E00F90DF91CF910E
S11346C00895CF93DF93CDB7DEB780E0DF91CF912C
S11346D00895CF93DF93CDB7DEB780E0DF91CF911C
S11346E00895CF93DF93CDB7DEB78091C1278BD1E7
S11346F00000DF91CF910895CF93DF931F92CDB740
S1134700DEB780915629909157299927892B11F466
S1134710198202C01982000089810F90DF91CF9124
S11347200895CF93DF931F92CDB7DEB7E5DF89837A
S113473000000F90DF91CF9108950F931F93CF93B3
S1134740DF9300D01F92CDB7DEB78C831C8284DD4B
S11347508A838C81882F90E08C5C9A4DFC01808147
S11347608B838C81882F90E0895C9A4DFC01808139
S11347708823F1F48C81882F90E0880F991F8B5C3B
S11347809A4DFC01208131818C81482F50E08B812E
S1134790882F90E0440F551F840F951F880F991F91
S11347A0805D9A4DFC01808191812817390720F49E
S11347B08A8162DD80E05BC08C81882F90E0880F65
S11347C0991F8B5C9A4DFC01108211828C81882F79
S11347D090E021E03B81332309F020E08C5C9A4D8A
S11347E0FC0120838C81882F90E0895C9A4D21E024
S11347F0FC0120838A8140DD8C8181D2882319F0D9
S11348008C810E942D098C81882F90E0892B19F4CA
S113481082E0898303C082E0898300008C81682F51
S113482070E08B81482F50E080E491E0489F900134
S1134830499F300D589F300D1124CB019695982F28
S1134840882797958795AC01440F551F440F551F32
S1134850840F951F820F931F80559D4D0FE314E223
S113486020E431E0AC0161E089810E94A431249606
S1134870CDBFDEBFDF91CF911F910F9108950F93AC
S11348801F93CF93DF9300D000D0CDB7DEB78B83D7
S11348906C837D834E838E81882F90E0029711F480
S11348A0198202C0198200008B81882309F057C045
S11348B08981882F90E08C5C9A4DFC01908181E085
S11348C0992309F080E08A838C819D81892B51F59D
S11348D08981682F70E08A81482F50E080E491E05C
S11348E0489F9001499F300D589F300D1124CB01F2
S11348F09695982F882797958795AC01440F551F57
S1134900440F551F840F951F820F931F80559D4D93
S11349100FE314E220E431E0AC0161E08E810E94F7
S1134920A4311EC08981282F30E08A81882F90E02D
S1134930220F331F820F931F880F991F805D9A4D9A
S11349402C813D81FC01208331838981882F90E073
S1134950895C9A4DFC0110828981EFDE01C0000060
S11349602696CDBFDEBFDF91CF911F910F910895A1
S1134970CF93DF93CDB7DEB72597CDBFDEBF8A8354
S11349806B837C834D838D81882F90E081389105E2
S113499011F4198202C0198200008A81882361F50A
S11349A08981282F30E08981882F90E08454984DA4
S11349B0FC01908181E0992309F080E0882F90E048
S11349C0220F331F820F931F880F991F8854984D0D
S11349D0FC01108211828981882F90E08054984DC7
S11349E0FC0110828981882F90E08154984DFC014C
S11349F01082898108D001C000002596CDBFDEBF9A
S1134A00DF91CF9108950F931F93CF93DF93CDB789
S1134A10DEB72597CDBFDEBF8D831D828D81882FA4
S1134A2090E08154984DFC018081882309F01DC1D8
S1134A300E946E30882381F08D81882F90E0880F4A
S1134A40991F8354984DFC01008111810E949C3070
S1134A500817190789F40CC18D81882F90E0880FFD
S1134A60991F8354984DFC01008111810E9491305B
S1134A700817190709F4FBC0EFDB8B838D81882F9E
S1134A8090E08454984DFC01808189838D81282F86
S1134A9030E08981882F90E0220F331F820F931F0B
S1134AA0880F991F8854984DFC0180819181892B2E
S1134AB029F58091C2279091C32701968093C2273C
S1134AC09093C3270E946E30982F81E08927882312
S1134AD039F08091C2279091C3278436910558F00C
S1134AE00E946E30882351F08091C2279091C32791
S1134AF08032934018F48B81BFDBBAC01092C22776
S1134B001092C3278D81882F90E08054984DFC012A
S1134B10908181E08927882369F08D81882F90E036
S1134B2021E03981332309F020E08454984DFC01BD
S1134B30208306C081E09981992309F080E089836C
S1134B408D81882F90E08154984D21E0FC012083D1
S1134B508B8192DB8D81282F30E08981882F90E032
S1134B60220F331F820F931F880F991F8854984D6B
S1134B70FC018081918121E08034914009F420E09E
S1134B802C838C81882311F10E946E30882379F064
S1134B908D81082F10E00E949C309C01C801880F71
S1134BA0991F8354984DFC012083318319C08D8152
S1134BB0082F10E00E9491309C01C801880F991FB2
S1134BC08354984DFC01208331830AC08D81882F42
S1134BD090E0880F991F8354984DFC011082118234
S1134BE08D81882F90E0892B19F481E88A8303C092
S1134BF081E88A8300008D81282F30E08981882F05
S1134C0090E0220F331F820F931F880F991F88543F
S1134C10984DFC01608171818D81E82FF0E08981DC
S1134C20482F50E080E491E0489F9001499F300D67
S1134C30589F300D1124CF019695982F882797956A
S1134C408795AC01440F551F440F551F840F951FC2
S1134C50820F931F885C9A4D08EB14E29B01AC0110
S1134C606C818A810E94A43103C0000001C000004D
S1134C702596CDBFDEBFDF91CF911F910F9108958F
S1134C80CF93DF9300D000D0CDB7DEB78E831E82E2
S1134C90E3DA89838E81882F90E0880F991F8B5CDB
S1134CA09A4DFC01808191818A839B838E81282F78
S1134CB030E08E81882F90E08C5C9A4DFC018081DD
S1134CC0882F90E0220F331F820F931F880F991FA4
S1134CD0805D9A4DFC01208131818A819B81A901EB
S1134CE0481B590BCA018C839D838981C5DA8C8149
S1134CF09D812696CDBFDEBFDF91CF910895CF93DE
S1134D00DF931F92CDB7DEB789838981B9DF21E0B4
S1134D10892B09F420E0822F0F90DF91CF91089521
S1134D20CF93DF93CDB7DEB780E0E9DFDF91CF919A
S1134D300895CF93DF93CDB7DEB72897CDBFDEBFFD
S1134D40888719821A8218868885282F30E0C9013D
S1134D50880F991F880F991F880F991F821B930B27
S1134D6082569D4DFC01908181E0993009F080E0EC
S1134D708B8372DA8C838885882F90E0880F991F43
S1134D808B5C9A4DFC01808191818D839E83888503
S1134D90882F90E08C5C9A4DFC0180818F838C81FC
S1134DA06BDA00008885282F30E08F81882F90E00F
S1134DB0220F331F820F931F880F991F805D9A4D16
S1134DC0FC01208131818D819E818217930748F0F7
S1134DD09091AE2281E08927882359F280E090E007
S1134DE04BC08885682F70E08F81482F50E080E4A5
S1134DF091E0489F9001499F300D589F300D112438
S1134E00CB019695982F882797958795AC01440FE9
S1134E10551F440F551F840F951F280F391F8D816F
S1134E209E81820F931F80559D4DFC018081882FA8
S1134E3090E029813A81822B932B89839A838885F8
S1134E40882F90E02D813E812F5F3F4F880F991F5F
S1134E508B5C9A4DFC012083318388856EDC8B81C9
S1134E60882341F01B8289819A81982F882789831E
S1134E709A837FCF89819A812896CDBFDEBFDF9147
S1134E80CF910895CF93DF93CDB7DEB780E051DFA4
S1134E90DF91CF910895CF93DF93CDB7DEB72797F6
S1134EA0CDBFDEBF8F831F82D7D98D838F81882F9B
S1134EB090E08454984DFC0180818E838F81282F4B
S1134EC030E08E81882F90E0220F331F820F931FD2
S1134ED0880F991F8854984DFC01808191818983A2
S1134EE09A838F81282F30E081E09E81992309F0F5
S1134EF080E0882F90E0220F331F820F931F880FCA
S1134F00991F8854984DFC01808191818B839C83E7
S1134F1089819A818034914081F58F81882F90E036
S1134F208154984DFC01908181E08927882329F1DF
S1134F308F81882F90E08054984DFC01908181E00E
S1134F4089278823D1F08F81882F90E08054984D51
S1134F5021E0FC0120838F81882F90E021E03E81B5
S1134F60332309F020E08454984DFC0120831982F6
S1134F701A8280E491E08B839C838D817DD9898121
S1134F809A8122273327281B390B8B819C81A90105
S1134F90481B590BCA0180589D4F2796CDBFDEBFD1
S1134FA0DF91CF910895CF93DF931F92CDB7DEB7F2
S1134FB08983898170DF21E0892B09F420E0822F25
S1134FC00F90DF91CF910895CF93DF93CDB7DEB7E4
S1134FD02897CDBFDEBF8C836D837E831C828C813A
S1134FE0282F30E0C901880F991F880F991F880F57
S1134FF0991F821B930B82569D4DDC019C9181E08D
S1135000993009F080E089838C81CDDF982F81E08D
S11350108927882349F09091AE2281E0892788234B
S113502099F380E090E062C017D98A838C81882F3D
S113503090E08454984DFC0180818B838C81A82F4F
S1135040B0E08B81682F70E08C81482F50E08B8119
S1135050882F90E09A01220F331F280F391F220F47
S1135060331F2854384DF90120813181F9013196DB
S1135070EF83F887440F551F840F951F880F991FDE
S11350808854984D4F815885FC0140835183ED81AC
S113509080E491E0689FA001699F500D789F500DB6
S11350A01124CD019695982F882797958795BC0153
S11350B0660F771F660F771F860F971F840F951F44
S11350C0820F931F885C9A4DDC01EC938A81D4D8BB
S11350D08981882349F019828D819E81892F990FB6
S11350E0990B8D839E8390CF81E090E02896CDBF6D
S11350F0DEBFDF91CF910895CF93DF931F921F926C
S1135100CDB7DEB789839A8389819A81BC0180E017
S11351105BDF0F900F90DF91CF910895CF93DF93D2
S1135120CDB7DEB78091C7279091C827FC012081B5
S113513031818091C7279091C827FC01808191819A
S1135140FC0182819381820F931FDF91CF91089597
S1135150CF93DF93CDB7DEB72597CDBFDEBF8B836B
S11351609C836D83DBDF89839A838B819C81FC0123
S11351708081882F90E02B813C81820F931F8B8349
S11351809C831CC08B819C81FC0181818430F1F063
S11351908B819C81FC0191818D81981719F48B81FD
S11351A09C8117C08B819C81FC018081882F90E0B9
S11351B02B813C81820F931F8B839C8329813A81AD
S11351C08B819C8182179307E8F201C0000080E084
S11351D090E02596CDBFDEBFDF91CF910895CF93A8
S11351E0DF9300D01F92CDB7DEB78B836C838091A1
S11351F0C627882311F480E055C08091C727909179
S1135200C827FC0180819181FC0194818B818917DD
S113521010F080E047C08091C7279091C827FC0117
S1135220808191818093C9279093CA2777DF8983EE
S11352309A832EC08091C9279091CA27FC0181814D
S11352408430A1F48091C9279091CA27FC019281EE
S11352508B81981759F48091C9279091CA27FC0132
S113526093818C81981711F481E01CC02091C92787
S11352703091CA278091C9279091CA27FC01808167
S1135280882F90E0820F931F8093C9279093CA2799
S11352908091C9279091CA2729813A81821793075F
S11352A048F280E02496CDBFDEBFDF91CF91089510
S11352B0CF93DF93CDB7DEB72597CDBFDEBF8D8308
S11352C060E08D818CDF982F81E08927882311F09D
S11352D080E043C08091C7279091C827FC012281B8
S11352E033818D81882F90E0880F991F820F931F3F
S11352F0FC01808191818B839C838B819C81FC0147
S113530086819781FC011995682F8D8168DF982F1C
S113531081E08927882311F080E01FC08091C9278C
S11353209091CA2789839A8389819A8165E010DFE5
S113533089839A8389819A81892B31F089819A8121
S1135340FC01828167D7F0CF00008B819C81FC0136
S113535082819381FC01199581E02596CDBFDEBF42
S1135360DF91CF910895CF93DF9300D01F92CDB7F3
S1135370DEB78B836C836C818B8131DF982F81E066
S11353808927882311F080E03DC08091C92790913E
S1135390CA2789839A8389819A8165E0D9DE8983C2
S11353A09A8389819A81892BB1F089819A81FC0140
S11353B02481358189819A81FC01638189819A8163
S11353C0FC018281A901DED6982F81E089278823F8
S11353D011F380E017C000008091C7279091C8277F
S11353E0FC01228133818B81882F90E0880F991FE3
S11353F0820F931FFC0180819181FC018081918146
S1135400FC0119952496CDBFDEBFDF91CF9108959D
S1135410CF93DF93CDB7DEB786D50000DF91CF9170
S11354200895CF93DF931F92CDB7DEB78091C6273F
S1135430882399F0198205C089813ADF89818F5FB9
S113544089838091C7279091C827FC01808191812D
S1135450FC0194818981891778F31092C62781E031
S113546090E08093C4279093C52700000F90DF91AC
S1135470CF910895CF93DF931F92CDB7DEB780917C
S1135480C6278823E9F119822FC08091C7279091FC
S1135490C827FC01228133818981882F90E0880FFD
S11354A0991F820F931FFC0180819181FC018085EB
S11354B09185892BB1F08091C7279091C827FC0171
S11354C0228133818981882F90E0880F991F820F70
S11354D0931FFC0180819181FC0180859185FC01F1
S11354E0199589818F5F89838091C7279091C827F7
S11354F0FC0180819181FC0194818981891728F2C2
S113550000000F90DF91CF910895CF93DF93CDB733
S1135510DEB78091582990915929029711F080E0C3
S113552006C062E070E084EC97E20FD681E0DF9180
S1135530CF910895CF93DF93CDB7DEB780915829EB
S113554090915929029711F080E011C08091562959
S11355509091572976D6882F90E08093CB2790930B
S1135560CC2762E070E08BEC97E2EFD581E0DF912D
S1135570CF910895CF93DF93CDB7DEB780915829AB
S113558090915929892B11F080E012C080915429FF
S113559090915529019759F48091C4279091C5277A
S11355A08D7F8093C4279093C52781E001C080E05C
S11355B0DF91CF910895CF93DF93CDB7DEB780917C
S11355C0582990915929892B11F080E00DC08091C0
S11355D0542990915529892B31F480915629909121
S11355E0572970D601C080E0DF91CF910895CF9301
S11355F0DF93CDB7DEB78091582990915929892B33
S113560011F080E00AC080915429909155290197A6
S113561019F0000080E001C080E0DF91CF9108958F
S1135620CF93DF93CDB7DEB7809158299091592954
S1135630892B11F080E012C0809154299091552952
S1135640892B59F4809156299091572945D78091F7
S113565056299091572912D601C080E0DF91CF914D
S11356600895CF93DF93CDB7DEB7809154299091FD
S113567055298F773BD50000DF91CF910895CF93C3
S1135680DF93CDB7DEB78091582990915929892BA2
S113569011F080E007C081E39BE280935E29909340
S11356A05F2981E0DF91CF910895CF93DF9300D0FC
S11356B01F92CDB7DEB71C82809154299091552951
S11356C099278130910561F08130910518F0029796
S11356D071F014C064E070E08AE890E236D510C03E
S11356E087E08C838EE890E28A839B8309C08DE1F6
S11356F08C8386E990E28A839B8302C080E032C077
S11357008C81882371F1198219C08981882F90E0D6
S11357102981222F30E04A815B81240F351FF90152
S11357202081222F30E00196880F991F8C549F4DC1
S1135730FC012083318389818F5F898399818C81E6
S1135740981718F38C81882F90E00196880F809326
S1135750B4208091B420882F90E0BC0184EB90E2C7
S1135760F4D481E02496CDBFDEBFDF91CF910895BC
S1135770CF93DF931F92CDB7DEB7809154299091D8
S1135780552989838091542990915529892F9927E6
S113579082309105B1F08330910509F44AC0019734
S11357A009F04FC08091862090918720FC01808170
S11357B0282F30E08091862090918720B901C5D4AC
S11357C043C08091862090918720FC019189898132
S11357D0891710F080E04CC02091882030918920F6
S11357E08981882F90E0880F991F880F991F820F55
S11357F0931FFC0180819181FC014281538120919E
S11358008820309189208981882F90E0880F991F02
S1135810880F991F820F931FFC0180819181BA0127
S113582094D480915A2990915B2922E0FC01218330
S11358300BC03BDF982F81E08927882321F080E08B
S113584017C080E015C000002091582930915929D3
S113585080915C2990915D292817390740F4809143
S113586058299091592980935C2990935D2981E06E
S11358700F90DF91CF910895CF93DF93CDB7DEB72B
S11358808091582990915929019711F080E006C020
S113589061E070E086EC97E258D481E0DF91CF912B
S11358A00895CF93DF931F92CDB7DEB78091582927
S11358B090915929892B11F080E055C027D4882371
S11358C011F480E050C080915429909155299C0195
S11358D033278091862090918720FC018189882F2D
S11358E090E08217930710F480E03DC09ADD809128
S11358F05429909155298093C6278091C6278823DF
S113590011F481E030C02091882030918920809169
S1135910C627882F90E08150904C880F991F880FDC
S1135920991F820F931F8093C7279093C8271982CA
S11359300DC060E0898117DD982F81E089278823D5
S113594011F080E010C089818F5F89838091C7271F
S11359509091C827FC0180819181FC019481898107
S1135960891738F381E00F90DF91CF910895CF9399
S1135970DF9300D0CDB7DEB7809158299091592993
S1135980019711F080E045C08091C627882311F467
S113599080E03FC080915629909157298983809156
S11359A0C7279091C827FC0180819181FC019481D3
S11359B08981891710F080E02CC060E089810FDCB8
S11359C0982F81E08927882311F080E022C08091FC
S11359D0C7279091C827FC01228133818981882FB0
S11359E090E0880F991F820F931FFC0180819181A1
S11359F08A839B838A819B81FC0186819781FC0138
S1135A0019958093CD2761E070E08DEC97E29DD3EA
S1135A1081E02396CDBFDEBFDF91CF910895CF9370
S1135A20DF931F921F92CDB7DEB7809158299091D2
S1135A305929892B11F080E01CC08091C627882346
S1135A4011F480E016C080915629909157298983DA
S1135A5080915429909155298A83898129DC982F32
S1135A6081E08927882311F080E003C06A8189815D
S1135A707ADC0F900F90DF91CF910895CF93DF934D
S1135A80CDB7DEB78091522988230CF046C08091AF
S1135A90582990915929892B11F480E08DC0809167
S1135AA05229882F90E08F719927892B99F480913E
S1135AB05329882F90E08630910541F08830910574
S1135AC039F0892B09F006C020DD76C051DE74C0A0
S1135AD0D3DE72C080915229882F90E08F7199276C
S1135AE0019749F480915329882F90E00A9709F08F
S1135AF002C03DDF61C080915229882F90E08F71F0
S1135B009927029709F057C080915329882F90E074
S1135B10892B09F050C00EDD4FC080915229882F87
S1135B2090E08F719927892BF9F480915329882F5C
S1135B3090E08530910579F08630910534F4813018
S1135B40910559F0039759F00FC08730910559F02A
S1135B50099739F009C093DD2FC00CDD2DC047DD56
S1135B602BC09FDE29C0000080915229882F90E02D
S1135B708F719927019749F480915329882F90E0D8
S1135B800B9709F002C04BDF17C080915229882F70
S1135B9090E08F719927029771F480915329882F8F
S1135BA090E08130910519F0039719F004C003DDEA
S1135BB003C036DD01C080E0DF91CF910895CF931B
S1135BC0DF9300D0CDB7DEB78091C627882311F4C8
S1135BD080E048C08091562990915729898380910B
S1135BE0C7279091C827FC0180819181FC01948191
S1135BF08981891710F080E035C060E08981EFDA8F
S1135C00982F81E08927882311F080E02BC08091B0
S1135C10C7279091C827FC01228133818981882F6D
S1135C2090E0880F991F820F931FFC01808191815E
S1135C308A839B838A819B81FC0186819781FC01F5
S1135C401995682F8981CBDA982F81E089278823D9
S1135C5011F080E007C08A819B81FC0184819581D9
S1135C60FC0119952396CDBFDEBFDF91CF91089536
S1135C70CF93DF9300D0CDB7DEB78091C6278823BA
S1135C8011F480E046C08091562990915729898368
S1135C90198232C08091C7279091C827FC012281C4
S1135CA033818981882F90E0880F991F820F931F79
S1135CB0FC01808191818A839B838A819B81FC0181
S1135CC086819781FC011995682F898188DA982F3C
S1135CD081E08927882311F080E01BC08A819B81A1
S1135CE0FC0184819581FC011995882311F081E0E0
